{
  "_format": "hh-sol-artifact-1",
  "contractName": "BatonisNFT",
  "sourceName": "contracts/BatonisNFT.sol",
  "abi": [
    {
      "inputs": [
        {
          "internalType": "string",
          "name": "name",
          "type": "string"
        },
        {
          "internalType": "string",
          "name": "symbol",
          "type": "string"
        },
        {
          "internalType": "string",
          "name": "baseTokenURI",
          "type": "string"
        }
      ],
      "stateMutability": "nonpayable",
      "type": "constructor"
    },
    {
      "anonymous": false,
      "inputs": [
        {
          "indexed": true,
          "internalType": "address",
          "name": "owner",
          "type": "address"
        },
        {
          "indexed": true,
          "internalType": "address",
          "name": "approved",
          "type": "address"
        },
        {
          "indexed": true,
          "internalType": "uint256",
          "name": "tokenId",
          "type": "uint256"
        }
      ],
      "name": "Approval",
      "type": "event"
    },
    {
      "anonymous": false,
      "inputs": [
        {
          "indexed": true,
          "internalType": "address",
          "name": "owner",
          "type": "address"
        },
        {
          "indexed": true,
          "internalType": "address",
          "name": "operator",
          "type": "address"
        },
        {
          "indexed": false,
          "internalType": "bool",
          "name": "approved",
          "type": "bool"
        }
      ],
      "name": "ApprovalForAll",
      "type": "event"
    },
    {
      "anonymous": false,
      "inputs": [
        {
          "indexed": true,
          "internalType": "address",
          "name": "previousOwner",
          "type": "address"
        },
        {
          "indexed": true,
          "internalType": "address",
          "name": "newOwner",
          "type": "address"
        }
      ],
      "name": "OwnershipTransferred",
      "type": "event"
    },
    {
      "anonymous": false,
      "inputs": [
        {
          "indexed": true,
          "internalType": "address",
          "name": "from",
          "type": "address"
        },
        {
          "indexed": true,
          "internalType": "address",
          "name": "to",
          "type": "address"
        },
        {
          "indexed": true,
          "internalType": "uint256",
          "name": "tokenId",
          "type": "uint256"
        }
      ],
      "name": "Transfer",
      "type": "event"
    },
    {
      "inputs": [
        {
          "internalType": "address",
          "name": "to",
          "type": "address"
        },
        {
          "internalType": "uint256",
          "name": "tokenId",
          "type": "uint256"
        }
      ],
      "name": "approve",
      "outputs": [],
      "stateMutability": "nonpayable",
      "type": "function"
    },
    {
      "inputs": [
        {
          "internalType": "address",
          "name": "owner",
          "type": "address"
        }
      ],
      "name": "balanceOf",
      "outputs": [
        {
          "internalType": "uint256",
          "name": "",
          "type": "uint256"
        }
      ],
      "stateMutability": "view",
      "type": "function"
    },
    {
      "inputs": [
        {
          "internalType": "uint256",
          "name": "_price",
          "type": "uint256"
        }
      ],
      "name": "changePrice",
      "outputs": [],
      "stateMutability": "nonpayable",
      "type": "function"
    },
    {
      "inputs": [],
      "name": "gasPriceLimit",
      "outputs": [
        {
          "internalType": "uint256",
          "name": "",
          "type": "uint256"
        }
      ],
      "stateMutability": "view",
      "type": "function"
    },
    {
      "inputs": [
        {
          "internalType": "uint256",
          "name": "tokenId",
          "type": "uint256"
        }
      ],
      "name": "getApproved",
      "outputs": [
        {
          "internalType": "address",
          "name": "",
          "type": "address"
        }
      ],
      "stateMutability": "view",
      "type": "function"
    },
    {
      "inputs": [
        {
          "internalType": "address",
          "name": "owner",
          "type": "address"
        },
        {
          "internalType": "address",
          "name": "operator",
          "type": "address"
        }
      ],
      "name": "isApprovedForAll",
      "outputs": [
        {
          "internalType": "bool",
          "name": "",
          "type": "bool"
        }
      ],
      "stateMutability": "view",
      "type": "function"
    },
    {
      "inputs": [],
      "name": "maxElements",
      "outputs": [
        {
          "internalType": "uint256",
          "name": "",
          "type": "uint256"
        }
      ],
      "stateMutability": "view",
      "type": "function"
    },
    {
      "inputs": [
        {
          "internalType": "bytes",
          "name": "signature",
          "type": "bytes"
        }
      ],
      "name": "mint",
      "outputs": [],
      "stateMutability": "nonpayable",
      "type": "function"
    },
    {
      "inputs": [],
      "name": "name",
      "outputs": [
        {
          "internalType": "string",
          "name": "",
          "type": "string"
        }
      ],
      "stateMutability": "view",
      "type": "function"
    },
    {
      "inputs": [],
      "name": "owner",
      "outputs": [
        {
          "internalType": "address",
          "name": "",
          "type": "address"
        }
      ],
      "stateMutability": "view",
      "type": "function"
    },
    {
      "inputs": [
        {
          "internalType": "uint256",
          "name": "tokenId",
          "type": "uint256"
        }
      ],
      "name": "ownerOf",
      "outputs": [
        {
          "internalType": "address",
          "name": "",
          "type": "address"
        }
      ],
      "stateMutability": "view",
      "type": "function"
    },
    {
      "inputs": [],
      "name": "paymentToken",
      "outputs": [
        {
          "internalType": "contract IERC20",
          "name": "",
          "type": "address"
        }
      ],
      "stateMutability": "view",
      "type": "function"
    },
    {
      "inputs": [],
      "name": "price",
      "outputs": [
        {
          "internalType": "uint256",
          "name": "",
          "type": "uint256"
        }
      ],
      "stateMutability": "view",
      "type": "function"
    },
    {
      "inputs": [],
      "name": "renounceOwnership",
      "outputs": [],
      "stateMutability": "nonpayable",
      "type": "function"
    },
    {
      "inputs": [
        {
          "internalType": "address",
          "name": "from",
          "type": "address"
        },
        {
          "internalType": "address",
          "name": "to",
          "type": "address"
        },
        {
          "internalType": "uint256",
          "name": "tokenId",
          "type": "uint256"
        }
      ],
      "name": "safeTransferFrom",
      "outputs": [],
      "stateMutability": "nonpayable",
      "type": "function"
    },
    {
      "inputs": [
        {
          "internalType": "address",
          "name": "from",
          "type": "address"
        },
        {
          "internalType": "address",
          "name": "to",
          "type": "address"
        },
        {
          "internalType": "uint256",
          "name": "tokenId",
          "type": "uint256"
        },
        {
          "internalType": "bytes",
          "name": "data",
          "type": "bytes"
        }
      ],
      "name": "safeTransferFrom",
      "outputs": [],
      "stateMutability": "nonpayable",
      "type": "function"
    },
    {
      "inputs": [],
      "name": "saleState",
      "outputs": [
        {
          "internalType": "bool",
          "name": "",
          "type": "bool"
        }
      ],
      "stateMutability": "view",
      "type": "function"
    },
    {
      "inputs": [
        {
          "internalType": "address",
          "name": "operator",
          "type": "address"
        },
        {
          "internalType": "bool",
          "name": "approved",
          "type": "bool"
        }
      ],
      "name": "setApprovalForAll",
      "outputs": [],
      "stateMutability": "nonpayable",
      "type": "function"
    },
    {
      "inputs": [
        {
          "internalType": "string",
          "name": "baseTokenURI",
          "type": "string"
        }
      ],
      "name": "setBaseURI",
      "outputs": [],
      "stateMutability": "nonpayable",
      "type": "function"
    },
    {
      "inputs": [
        {
          "internalType": "uint256",
          "name": "amount",
          "type": "uint256"
        }
      ],
      "name": "setGasLimit",
      "outputs": [],
      "stateMutability": "nonpayable",
      "type": "function"
    },
    {
      "inputs": [
        {
          "internalType": "uint256",
          "name": "amount",
          "type": "uint256"
        }
      ],
      "name": "setMaxElement",
      "outputs": [],
      "stateMutability": "nonpayable",
      "type": "function"
    },
    {
      "inputs": [
        {
          "internalType": "address",
          "name": "token",
          "type": "address"
        }
      ],
      "name": "setPaymentToken",
      "outputs": [],
      "stateMutability": "nonpayable",
      "type": "function"
    },
    {
      "inputs": [
        {
          "internalType": "bool",
          "name": "_saleState",
          "type": "bool"
        }
      ],
      "name": "setSaleState",
      "outputs": [],
      "stateMutability": "nonpayable",
      "type": "function"
    },
    {
      "inputs": [
        {
          "internalType": "string",
          "name": "salt",
          "type": "string"
        }
      ],
      "name": "setSignSalt",
      "outputs": [],
      "stateMutability": "nonpayable",
      "type": "function"
    },
    {
      "inputs": [
        {
          "internalType": "address",
          "name": "signer",
          "type": "address"
        }
      ],
      "name": "setSigner",
      "outputs": [],
      "stateMutability": "nonpayable",
      "type": "function"
    },
    {
      "inputs": [
        {
          "internalType": "address",
          "name": "withdrawAddress",
          "type": "address"
        }
      ],
      "name": "setWithdraw",
      "outputs": [],
      "stateMutability": "nonpayable",
      "type": "function"
    },
    {
      "inputs": [
        {
          "internalType": "bytes4",
          "name": "interfaceId",
          "type": "bytes4"
        }
      ],
      "name": "supportsInterface",
      "outputs": [
        {
          "internalType": "bool",
          "name": "",
          "type": "bool"
        }
      ],
      "stateMutability": "view",
      "type": "function"
    },
    {
      "inputs": [],
      "name": "symbol",
      "outputs": [
        {
          "internalType": "string",
          "name": "",
          "type": "string"
        }
      ],
      "stateMutability": "view",
      "type": "function"
    },
    {
      "inputs": [
        {
          "internalType": "uint256",
          "name": "index",
          "type": "uint256"
        }
      ],
      "name": "tokenByIndex",
      "outputs": [
        {
          "internalType": "uint256",
          "name": "",
          "type": "uint256"
        }
      ],
      "stateMutability": "view",
      "type": "function"
    },
    {
      "inputs": [
        {
          "internalType": "address",
          "name": "owner",
          "type": "address"
        },
        {
          "internalType": "uint256",
          "name": "index",
          "type": "uint256"
        }
      ],
      "name": "tokenOfOwnerByIndex",
      "outputs": [
        {
          "internalType": "uint256",
          "name": "",
          "type": "uint256"
        }
      ],
      "stateMutability": "view",
      "type": "function"
    },
    {
      "inputs": [
        {
          "internalType": "uint256",
          "name": "tokenId",
          "type": "uint256"
        }
      ],
      "name": "tokenURI",
      "outputs": [
        {
          "internalType": "string",
          "name": "",
          "type": "string"
        }
      ],
      "stateMutability": "view",
      "type": "function"
    },
    {
      "inputs": [],
      "name": "totalSupply",
      "outputs": [
        {
          "internalType": "uint256",
          "name": "",
          "type": "uint256"
        }
      ],
      "stateMutability": "view",
      "type": "function"
    },
    {
      "inputs": [
        {
          "internalType": "address",
          "name": "from",
          "type": "address"
        },
        {
          "internalType": "address",
          "name": "to",
          "type": "address"
        },
        {
          "internalType": "uint256",
          "name": "tokenId",
          "type": "uint256"
        }
      ],
      "name": "transferFrom",
      "outputs": [],
      "stateMutability": "nonpayable",
      "type": "function"
    },
    {
      "inputs": [
        {
          "internalType": "address",
          "name": "newOwner",
          "type": "address"
        }
      ],
      "name": "transferOwnership",
      "outputs": [],
      "stateMutability": "nonpayable",
      "type": "function"
    },
    {
      "inputs": [],
      "name": "withdrawBalance",
      "outputs": [],
      "stateMutability": "nonpayable",
      "type": "function"
    }
  ],
  "bytecode": "0x6080604052600e805460ff60a01b19169055642e90edd000600f55662386f26fc1000060105560786012553480156200003757600080fd5b5060405162002b2c38038062002b2c8339810160408190526200005a9162000399565b8251839083906200007390600090602085019062000226565b5080516200008990600190602084019062000226565b505050620000a6620000a0620000f460201b60201c565b620000f8565b620000c3620000bd600a546001600160a01b031690565b6200014a565b620000e0620000da600a546001600160a01b031690565b62000176565b620000eb81620001a2565b50505062000467565b3390565b600a80546001600160a01b038381166001600160a01b0319831681179093556040519116919082907f8be0079c531659141344cd1fd0a4f28419497f9722a3daafe3b4186f6b6457e090600090a35050565b62000154620001c5565b600d80546001600160a01b0319166001600160a01b0392909216919091179055565b62000180620001c5565b600e80546001600160a01b0319166001600160a01b0392909216919091179055565b620001ac620001c5565b8051620001c190600b90602084019062000226565b5050565b600a546001600160a01b03163314620002245760405162461bcd60e51b815260206004820181905260248201527f4f776e61626c653a2063616c6c6572206973206e6f7420746865206f776e6572604482015260640160405180910390fd5b565b82805462000234906200042a565b90600052602060002090601f016020900481019282620002585760008555620002a3565b82601f106200027357805160ff1916838001178555620002a3565b82800160010185558215620002a3579182015b82811115620002a357825182559160200191906001019062000286565b50620002b1929150620002b5565b5090565b5b80821115620002b15760008155600101620002b6565b634e487b7160e01b600052604160045260246000fd5b600082601f830112620002f457600080fd5b81516001600160401b0380821115620003115762000311620002cc565b604051601f8301601f19908116603f011681019082821181831017156200033c576200033c620002cc565b816040528381526020925086838588010111156200035957600080fd5b600091505b838210156200037d57858201830151818301840152908201906200035e565b838211156200038f5760008385830101525b9695505050505050565b600080600060608486031215620003af57600080fd5b83516001600160401b0380821115620003c757600080fd5b620003d587838801620002e2565b94506020860151915080821115620003ec57600080fd5b620003fa87838801620002e2565b935060408601519150808211156200041157600080fd5b506200042086828701620002e2565b9150509250925092565b600181811c908216806200043f57607f821691505b602082108114156200046157634e487b7160e01b600052602260045260246000fd5b50919050565b6126b580620004776000396000f3fe608060405234801561001057600080fd5b50600436106101d15760003560e01c80636c19e78311610105578063a2b40d191161009d578063a2b40d19146103b4578063b88d4fde146103c7578063b8ea3cb0146103da578063c4e37095146103ed578063c87b56dd14610400578063e47dea1d14610413578063e985e9c514610426578063ee7d72b414610439578063f2fde38b1461044c57600080fd5b80636c19e7831461033557806370a0823114610348578063715018a61461035b5780637ba0e2e7146103635780638da5cb5b1461037657806395d89b4114610387578063961a929c1461038f578063a035b1fe14610398578063a22cb465146103a157600080fd5b806342842e0e1161017857806342842e0e1461029e5780634f6ccce7146102b1578063558fa0f5146102c457806355f804b3146102cd5780635c99936c146102e05780635fd8c710146102f3578063603f4d52146102fb5780636352211e1461030f5780636a326ab11461032257600080fd5b806301ffc9a7146101d657806306fdde03146101fe578063081812fc14610213578063095ea7b31461023e57806318160ddd1461025357806323b872dd146102655780632f745c59146102785780633013ce291461028b575b600080fd5b6101e96101e4366004611f74565b61045f565b60405190151581526020015b60405180910390f35b61020661048a565b6040516101f59190611fe9565b610226610221366004611ffc565b61051c565b6040516001600160a01b0390911681526020016101f5565b61025161024c366004612031565b610543565b005b6008545b6040519081526020016101f5565b61025161027336600461205b565b61065e565b610257610286366004612031565b61068f565b601154610226906001600160a01b031681565b6102516102ac36600461205b565b610725565b6102576102bf366004611ffc565b610740565b61025760125481565b6102516102db366004612123565b6107d3565b6102516102ee366004612123565b6107f2565b61025161080d565b600e546101e990600160a01b900460ff1681565b61022661031d366004611ffc565b61099b565b61025161033036600461216c565b6109d0565b61025161034336600461216c565b6109fa565b61025761035636600461216c565b610a24565b610251610aaa565b6102516103713660046121a7565b610abe565b600a546001600160a01b0316610226565b610206610ea4565b610257600f5481565b61025760105481565b6102516103af3660046121ea565b610eb3565b6102516103c2366004611ffc565b610ebe565b6102516103d5366004612221565b610ecb565b6102516103e8366004611ffc565b610f03565b6102516103fb366004612289565b610f10565b61020661040e366004611ffc565b610f36565b61025161042136600461216c565b610f9d565b6101e96104343660046122a6565b610fc7565b610251610447366004611ffc565b610ff5565b61025161045a36600461216c565b611002565b60006001600160e01b0319821663780e9d6360e01b1480610484575061048482611078565b92915050565b606060008054610499906122d9565b80601f01602080910402602001604051908101604052809291908181526020018280546104c5906122d9565b80156105125780601f106104e757610100808354040283529160200191610512565b820191906000526020600020905b8154815290600101906020018083116104f557829003601f168201915b5050505050905090565b6000610527826110c8565b506000908152600460205260409020546001600160a01b031690565b600061054e8261099b565b9050806001600160a01b0316836001600160a01b031614156105c15760405162461bcd60e51b815260206004820152602160248201527f4552433732313a20617070726f76616c20746f2063757272656e74206f776e656044820152603960f91b60648201526084015b60405180910390fd5b336001600160a01b03821614806105dd57506105dd8133610fc7565b61064f5760405162461bcd60e51b815260206004820152603d60248201527f4552433732313a20617070726f76652063616c6c6572206973206e6f7420746f60448201527f6b656e206f776e6572206f7220617070726f76656420666f7220616c6c00000060648201526084016105b8565b61065983836110ed565b505050565b610668338261115b565b6106845760405162461bcd60e51b81526004016105b890612314565b6106598383836111ba565b600061069a83610a24565b82106106fc5760405162461bcd60e51b815260206004820152602b60248201527f455243373231456e756d657261626c653a206f776e657220696e646578206f7560448201526a74206f6620626f756e647360a81b60648201526084016105b8565b506001600160a01b03919091166000908152600660209081526040808320938352929052205490565b61065983838360405180602001604052806000815250610ecb565b600061074b60085490565b82106107ae5760405162461bcd60e51b815260206004820152602c60248201527f455243373231456e756d657261626c653a20676c6f62616c20696e646578206f60448201526b7574206f6620626f756e647360a01b60648201526084016105b8565b600882815481106107c1576107c1612361565b90600052602060002001549050919050565b6107db61132b565b80516107ee90600b906020840190611ec5565b5050565b6107fa61132b565b80516107ee90600c906020840190611ec5565b61081561132b565b6011546040516370a0823160e01b81523060048201526000916001600160a01b0316906370a082319060240160206040518083038186803b15801561085957600080fd5b505afa15801561086d573d6000803e3d6000fd5b505050506040513d601f19601f820116820180604052508101906108919190612377565b9050600081116108d25760405162461bcd60e51b815260206004820152600c60248201526b42616c616e6365207a65726f60a01b60448201526064016105b8565b601154600e5460405163a9059cbb60e01b81526001600160a01b0391821660048201526024810184905291169063a9059cbb90604401602060405180830381600087803b15801561092257600080fd5b505af1158015610936573d6000803e3d6000fd5b505050506040513d601f19601f8201168201806040525081019061095a9190612390565b6109985760405162461bcd60e51b815260206004820152600f60248201526e151c985b9cd9995c8819985a5b1959608a1b60448201526064016105b8565b50565b6000818152600260205260408120546001600160a01b0316806104845760405162461bcd60e51b81526004016105b8906123ad565b6109d861132b565b601180546001600160a01b0319166001600160a01b0392909216919091179055565b610a0261132b565b600d80546001600160a01b0319166001600160a01b0392909216919091179055565b60006001600160a01b038216610a8e5760405162461bcd60e51b815260206004820152602960248201527f4552433732313a2061646472657373207a65726f206973206e6f7420612076616044820152683634b21037bbb732b960b91b60648201526084016105b8565b506001600160a01b031660009081526003602052604090205490565b610ab261132b565b610abc6000611385565b565b806000610b3833600c604051602001610ad89291906123df565b60408051601f1981840301815282825280516020918201207f19457468657265756d205369676e6564204d6573736167653a0a33320000000084830152603c8085019190915282518085039091018152605c909301909152815191012090565b600d549091506001600160a01b0316610b5182846113d7565b6001600160a01b031614610b9b5760405162461bcd60e51b8152602060048201526011602482015270496e76616c6964207369676e617475726560781b60448201526064016105b8565b601054600190600090610baf9083906124ae565b90506000610bbc60085490565b9050323314610bfb5760405162461bcd60e51b815260206004820152600b60248201526a139bdd08185b1b1bddd95960aa1b60448201526064016105b8565b600e54600160a01b900460ff161515600114610c495760405162461bcd60e51b815260206004820152600d60248201526c53616c65206e6f74206c69766560981b60448201526064016105b8565b601254610c5684836124cd565b1115610ca45760405162461bcd60e51b815260206004820152601b60248201527f45786365656473206d6178696d756d206d696e7420737570706c79000000000060448201526064016105b8565b600f543a1115610ce85760405162461bcd60e51b815260206004820152600f60248201526e23b0b990383934b1b29032b93937b960891b60448201526064016105b8565b601154604051636eb1769f60e11b815233600482015230602482015283916001600160a01b03169063dd62ed3e9060440160206040518083038186803b158015610d3157600080fd5b505afa158015610d45573d6000803e3d6000fd5b505050506040513d601f19601f82011682018060405250810190610d699190612377565b1015610dc85760405162461bcd60e51b815260206004820152602860248201527f417070726f766520636f6e747261637420666f72207370656e64696e6720796f60448201526775722066756e647360c01b60648201526084016105b8565b6011546040516323b872dd60e01b8152336004820152306024820152604481018490526001600160a01b03909116906323b872dd90606401602060405180830381600087803b158015610e1a57600080fd5b505af1158015610e2e573d6000803e3d6000fd5b505050506040513d601f19601f82011682018060405250810190610e529190612390565b610e935760405162461bcd60e51b8152602060048201526012602482015271496e73756666696369656e742066756e647360701b60448201526064016105b8565b610e9c336113fb565b505050505050565b606060018054610499906122d9565b6107ee338383611418565b610ec661132b565b601055565b610ed5338361115b565b610ef15760405162461bcd60e51b81526004016105b890612314565b610efd848484846114e3565b50505050565b610f0b61132b565b601255565b610f1861132b565b600e8054911515600160a01b0260ff60a01b19909216919091179055565b6060610f41826110c8565b6000610f4b611516565b90506000815111610f6b5760405180602001604052806000815250610f96565b80610f7584611525565b604051602001610f869291906124e5565b6040516020818303038152906040525b9392505050565b610fa561132b565b600e80546001600160a01b0319166001600160a01b0392909216919091179055565b6001600160a01b03918216600090815260056020908152604080832093909416825291909152205460ff1690565b610ffd61132b565b600f55565b61100a61132b565b6001600160a01b03811661106f5760405162461bcd60e51b815260206004820152602660248201527f4f776e61626c653a206e6577206f776e657220697320746865207a65726f206160448201526564647265737360d01b60648201526084016105b8565b61099881611385565b60006001600160e01b031982166380ac58cd60e01b14806110a957506001600160e01b03198216635b5e139f60e01b145b8061048457506301ffc9a760e01b6001600160e01b0319831614610484565b6110d1816115ba565b6109985760405162461bcd60e51b81526004016105b8906123ad565b600081815260046020526040902080546001600160a01b0319166001600160a01b03841690811790915581906111228261099b565b6001600160a01b03167f8c5be1e5ebec7d5bd14f71427d1e84f3dd0314c0f7b2291e5b200ac8c7c3b92560405160405180910390a45050565b6000806111678361099b565b9050806001600160a01b0316846001600160a01b0316148061118e575061118e8185610fc7565b806111b25750836001600160a01b03166111a78461051c565b6001600160a01b0316145b949350505050565b826001600160a01b03166111cd8261099b565b6001600160a01b0316146111f35760405162461bcd60e51b81526004016105b890612514565b6001600160a01b0382166112555760405162461bcd60e51b8152602060048201526024808201527f4552433732313a207472616e7366657220746f20746865207a65726f206164646044820152637265737360e01b60648201526084016105b8565b61126283838360016115d7565b826001600160a01b03166112758261099b565b6001600160a01b03161461129b5760405162461bcd60e51b81526004016105b890612514565b600081815260046020908152604080832080546001600160a01b03199081169091556001600160a01b0387811680865260038552838620805460001901905590871680865283862080546001019055868652600290945282852080549092168417909155905184937fddf252ad1be2c89b69c2b068fc378daa952ba7f163c4a11628f55a4df523b3ef91a4505050565b600a546001600160a01b03163314610abc5760405162461bcd60e51b815260206004820181905260248201527f4f776e61626c653a2063616c6c6572206973206e6f7420746865206f776e657260448201526064016105b8565b600a80546001600160a01b038381166001600160a01b0319831681179093556040519116919082907f8be0079c531659141344cd1fd0a4f28419497f9722a3daafe3b4186f6b6457e090600090a35050565b60008060006113e68585611717565b915091506113f38161175d565b509392505050565b6109988161140860085490565b6114139060016124cd565b6118a6565b816001600160a01b0316836001600160a01b031614156114765760405162461bcd60e51b815260206004820152601960248201527822a9219b99189d1030b8383937bb32903a379031b0b63632b960391b60448201526064016105b8565b6001600160a01b03838116600081815260056020908152604080832094871680845294825291829020805460ff191686151590811790915591519182527f17307eab39ab6107e8899845ad3d59bd9653f200f220920489ca2b5937696c31910160405180910390a3505050565b6114ee8484846111ba565b6114fa848484846118c0565b610efd5760405162461bcd60e51b81526004016105b890612559565b6060600b8054610499906122d9565b60606000611532836119cd565b600101905060008167ffffffffffffffff81111561155257611552612097565b6040519080825280601f01601f19166020018201604052801561157c576020820181803683370190505b5090508181016020015b600019016f181899199a1a9b1b9c1cb0b131b232b360811b600a86061a8153600a85049450846115b5576113f3565b611586565b6000908152600260205260409020546001600160a01b0316151590565b6115e384848484611aa5565b60018111156116525760405162461bcd60e51b815260206004820152603560248201527f455243373231456e756d657261626c653a20636f6e7365637574697665207472604482015274185b9cd9995c9cc81b9bdd081cdd5c1c1bdc9d1959605a1b60648201526084016105b8565b816001600160a01b0385166116ae576116a981600880546000838152600960205260408120829055600182018355919091527ff3f7a9fe364faab93b216da50a3214154f22a0a2b415b23a84c8169e8b636ee30155565b6116d1565b836001600160a01b0316856001600160a01b0316146116d1576116d18582611b2d565b6001600160a01b0384166116ed576116e881611bca565b611710565b846001600160a01b0316846001600160a01b031614611710576117108482611c79565b5050505050565b60008082516041141561174e5760208301516040840151606085015160001a61174287828585611cbd565b94509450505050611756565b506000905060025b9250929050565b6000816004811115611771576117716125ab565b141561177a5750565b600181600481111561178e5761178e6125ab565b14156117d75760405162461bcd60e51b815260206004820152601860248201527745434453413a20696e76616c6964207369676e617475726560401b60448201526064016105b8565b60028160048111156117eb576117eb6125ab565b14156118395760405162461bcd60e51b815260206004820152601f60248201527f45434453413a20696e76616c6964207369676e6174757265206c656e6774680060448201526064016105b8565b600381600481111561184d5761184d6125ab565b14156109985760405162461bcd60e51b815260206004820152602260248201527f45434453413a20696e76616c6964207369676e6174757265202773272076616c604482015261756560f01b60648201526084016105b8565b6107ee828260405180602001604052806000815250611d77565b60006001600160a01b0384163b156119c257604051630a85bd0160e11b81526001600160a01b0385169063150b7a02906119049033908990889088906004016125c1565b602060405180830381600087803b15801561191e57600080fd5b505af192505050801561194e575060408051601f3d908101601f1916820190925261194b918101906125fe565b60015b6119a8573d80801561197c576040519150601f19603f3d011682016040523d82523d6000602084013e611981565b606091505b5080516119a05760405162461bcd60e51b81526004016105b890612559565b805181602001fd5b6001600160e01b031916630a85bd0160e11b1490506111b2565b506001949350505050565b60008072184f03e93ff9f4daa797ed6e38ed64bf6a1f0160401b8310611a0c5772184f03e93ff9f4daa797ed6e38ed64bf6a1f0160401b830492506040015b6d04ee2d6d415b85acef81000000008310611a38576d04ee2d6d415b85acef8100000000830492506020015b662386f26fc100008310611a5657662386f26fc10000830492506010015b6305f5e1008310611a6e576305f5e100830492506008015b6127108310611a8257612710830492506004015b60648310611a94576064830492506002015b600a83106104845760010192915050565b6001811115610efd576001600160a01b03841615611aeb576001600160a01b03841660009081526003602052604081208054839290611ae590849061261b565b90915550505b6001600160a01b03831615610efd576001600160a01b03831660009081526003602052604081208054839290611b229084906124cd565b909155505050505050565b60006001611b3a84610a24565b611b44919061261b565b600083815260076020526040902054909150808214611b97576001600160a01b03841660009081526006602090815260408083208584528252808320548484528184208190558352600790915290208190555b5060009182526007602090815260408084208490556001600160a01b039094168352600681528383209183525290812055565b600854600090611bdc9060019061261b565b60008381526009602052604081205460088054939450909284908110611c0457611c04612361565b906000526020600020015490508060088381548110611c2557611c25612361565b6000918252602080832090910192909255828152600990915260408082208490558582528120556008805480611c5d57611c5d612632565b6001900381819060005260206000200160009055905550505050565b6000611c8483610a24565b6001600160a01b039093166000908152600660209081526040808320868452825280832085905593825260079052919091209190915550565b6000806fa2a8918ca85bafe22016d0b997e4df60600160ff1b03831115611cea5750600090506003611d6e565b6040805160008082526020820180845289905260ff881692820192909252606081018690526080810185905260019060a0016020604051602081039080840390855afa158015611d3e573d6000803e3d6000fd5b5050604051601f1901519150506001600160a01b038116611d6757600060019250925050611d6e565b9150600090505b94509492505050565b611d818383611daa565b611d8e60008484846118c0565b6106595760405162461bcd60e51b81526004016105b890612559565b6001600160a01b038216611e005760405162461bcd60e51b815260206004820181905260248201527f4552433732313a206d696e7420746f20746865207a65726f206164647265737360448201526064016105b8565b611e09816115ba565b15611e265760405162461bcd60e51b81526004016105b890612648565b611e346000838360016115d7565b611e3d816115ba565b15611e5a5760405162461bcd60e51b81526004016105b890612648565b6001600160a01b038216600081815260036020908152604080832080546001019055848352600290915280822080546001600160a01b0319168417905551839291907fddf252ad1be2c89b69c2b068fc378daa952ba7f163c4a11628f55a4df523b3ef908290a45050565b828054611ed1906122d9565b90600052602060002090601f016020900481019282611ef35760008555611f39565b82601f10611f0c57805160ff1916838001178555611f39565b82800160010185558215611f39579182015b82811115611f39578251825591602001919060010190611f1e565b50611f45929150611f49565b5090565b5b80821115611f455760008155600101611f4a565b6001600160e01b03198116811461099857600080fd5b600060208284031215611f8657600080fd5b8135610f9681611f5e565b60005b83811015611fac578181015183820152602001611f94565b83811115610efd5750506000910152565b60008151808452611fd5816020860160208601611f91565b601f01601f19169290920160200192915050565b602081526000610f966020830184611fbd565b60006020828403121561200e57600080fd5b5035919050565b80356001600160a01b038116811461202c57600080fd5b919050565b6000806040838503121561204457600080fd5b61204d83612015565b946020939093013593505050565b60008060006060848603121561207057600080fd5b61207984612015565b925061208760208501612015565b9150604084013590509250925092565b634e487b7160e01b600052604160045260246000fd5b600067ffffffffffffffff808411156120c8576120c8612097565b604051601f8501601f19908116603f011681019082821181831017156120f0576120f0612097565b8160405280935085815286868601111561210957600080fd5b858560208301376000602087830101525050509392505050565b60006020828403121561213557600080fd5b813567ffffffffffffffff81111561214c57600080fd5b8201601f8101841361215d57600080fd5b6111b2848235602084016120ad565b60006020828403121561217e57600080fd5b610f9682612015565b600082601f83011261219857600080fd5b610f96838335602085016120ad565b6000602082840312156121b957600080fd5b813567ffffffffffffffff8111156121d057600080fd5b6111b284828501612187565b801515811461099857600080fd5b600080604083850312156121fd57600080fd5b61220683612015565b91506020830135612216816121dc565b809150509250929050565b6000806000806080858703121561223757600080fd5b61224085612015565b935061224e60208601612015565b925060408501359150606085013567ffffffffffffffff81111561227157600080fd5b61227d87828801612187565b91505092959194509250565b60006020828403121561229b57600080fd5b8135610f96816121dc565b600080604083850312156122b957600080fd5b6122c283612015565b91506122d060208401612015565b90509250929050565b600181811c908216806122ed57607f821691505b6020821081141561230e57634e487b7160e01b600052602260045260246000fd5b50919050565b6020808252602d908201527f4552433732313a2063616c6c6572206973206e6f7420746f6b656e206f776e6560408201526c1c881bdc88185c1c1c9bdd9959609a1b606082015260800190565b634e487b7160e01b600052603260045260246000fd5b60006020828403121561238957600080fd5b5051919050565b6000602082840312156123a257600080fd5b8151610f96816121dc565b602080825260189082015277115490cdcc8c4e881a5b9d985b1a59081d1bdad95b88125160421b604082015260600190565b60018060a01b0383168152600060206040818401526000845481600182811c91508083168061240f57607f831692505b85831081141561242d57634e487b7160e01b85526022600452602485fd5b604088018390526060880181801561244c576001811461245d57612488565b60ff19861682528782019650612488565b60008b81526020902060005b8681101561248257815484820152908501908901612469565b83019750505b50949a9950505050505050505050565b634e487b7160e01b600052601160045260246000fd5b60008160001904831182151516156124c8576124c8612498565b500290565b600082198211156124e0576124e0612498565b500190565b600083516124f7818460208801611f91565b83519083019061250b818360208801611f91565b01949350505050565b60208082526025908201527f4552433732313a207472616e736665722066726f6d20696e636f72726563742060408201526437bbb732b960d91b606082015260800190565b60208082526032908201527f4552433732313a207472616e7366657220746f206e6f6e20455243373231526560408201527131b2b4bb32b91034b6b83632b6b2b73a32b960711b606082015260800190565b634e487b7160e01b600052602160045260246000fd5b6001600160a01b03858116825284166020820152604081018390526080606082018190526000906125f490830184611fbd565b9695505050505050565b60006020828403121561261057600080fd5b8151610f9681611f5e565b60008282101561262d5761262d612498565b500390565b634e487b7160e01b600052603160045260246000fd5b6020808252601c908201527f4552433732313a20746f6b656e20616c7265616479206d696e7465640000000060408201526060019056fea264697066735822122015abdbfb6411f57d699cf18fb28a9709325b3dc16ecc0c427ca352299a11008964736f6c63430008090033",
  "linkReferences": {},
  "deployedLinkReferences": {}
}